{
  "abi": [
    {
      "anonymous": false,
      "inputs": [
        {
          "indexed": false,
          "internalType": "string",
          "name": "name",
          "type": "string"
        },
        {
          "indexed": false,
          "internalType": "address",
          "name": "user",
          "type": "address"
        }
      ],
      "name": "NameRegistered",
      "type": "event"
    },
    {
      "anonymous": false,
      "inputs": [
        {
          "indexed": false,
          "internalType": "string",
          "name": "name",
          "type": "string"
        },
        {
          "indexed": false,
          "internalType": "address",
          "name": "user",
          "type": "address"
        }
      ],
      "name": "NameReleased",
      "type": "event"
    },
    {
      "inputs": [
        {
          "internalType": "string",
          "name": "name",
          "type": "string"
        }
      ],
      "name": "checkName",
      "outputs": [
        {
          "internalType": "address",
          "name": "",
          "type": "address"
        }
      ],
      "stateMutability": "view",
      "type": "function"
    },
    {
      "inputs": [
        {
          "internalType": "string",
          "name": "",
          "type": "string"
        }
      ],
      "name": "nameToUser",
      "outputs": [
        {
          "internalType": "address",
          "name": "",
          "type": "address"
        }
      ],
      "stateMutability": "view",
      "type": "function"
    },
    {
      "inputs": [
        {
          "internalType": "string",
          "name": "name",
          "type": "string"
        }
      ],
      "name": "registerName",
      "outputs": [],
      "stateMutability": "nonpayable",
      "type": "function"
    },
    {
      "inputs": [
        {
          "internalType": "string",
          "name": "name",
          "type": "string"
        }
      ],
      "name": "releaseName",
      "outputs": [],
      "stateMutability": "nonpayable",
      "type": "function"
    }
  ],
  "bytecode": {
    "object": "0x608060405234801561001057600080fd5b50610516806100206000396000f3fe608060405234801561001057600080fd5b506004361061004c5760003560e01c80630830602b146100515780631400d1e41461006657806348305c9114610095578063d310bc32146100c9575b600080fd5b61006461005f36600461039f565b6100dc565b005b61007961007436600461039f565b6101b2565b6040516001600160a01b03909116815260200160405180910390f35b6100796100a336600461039f565b80516020818301810180516000825292820191909301209152546001600160a01b031681565b6100646100d736600461039f565b6101e2565b6100e58161033f565b156101375760405162461bcd60e51b815260206004820152601a60248201527f6e616d6520697320616c7265616479207265676973746572656400000000000060448201526064015b60405180910390fd5b336000826040516101489190610480565b90815260405190819003602001812080546001600160a01b03939093166001600160a01b0319909316929092179091557f1c6eac0e720ec22bb0653aec9c19985633a4fb07971cf973096c2f8e3c37c17f906101a7908390339061049c565b60405180910390a150565b600080826040516101c39190610480565b908152604051908190036020019020546001600160a01b031692915050565b6101eb8161033f565b151560011461023c5760405162461bcd60e51b815260206004820152601f60248201527f6e616d652063757272656e746c792069736e2774207265676973746572656400604482015260640161012e565b336001600160a01b03166000826040516102569190610480565b908152604051908190036020019020546001600160a01b0316146102cf5760405162461bcd60e51b815260206004820152602a60248201527f6e616d652063616e206f6e6c792062652072656c6561736564206279206375726044820152693932b73a1037bbb732b960b11b606482015260840161012e565b600080826040516102e09190610480565b90815260405190819003602001812080546001600160a01b03939093166001600160a01b0319909316929092179091557f9ba695f456eda68948ab6ebb7d43bb0e037f3184bc4e0a38f50763792f091f60906101a7908390339061049c565b6000806001600160a01b031660008360405161035b9190610480565b908152604051908190036020019020546001600160a01b03161461038157506001919050565b506000919050565b634e487b7160e01b600052604160045260246000fd5b6000602082840312156103b157600080fd5b813567ffffffffffffffff808211156103c957600080fd5b818401915084601f8301126103dd57600080fd5b8135818111156103ef576103ef610389565b604051601f8201601f19908116603f0116810190838211818310171561041757610417610389565b8160405282815287602084870101111561043057600080fd5b826020860160208301376000928101602001929092525095945050505050565b60005b8381101561046b578181015183820152602001610453565b8381111561047a576000848401525b50505050565b60008251610492818460208701610450565b9190910192915050565b60408152600083518060408401526104bb816060850160208801610450565b6001600160a01b0393909316602083015250601f91909101601f19160160600191905056fea2646970667358221220304a7e873251b4bc09f115c4d045d44cae91760f411bb700c94582f5b2b774f164736f6c634300080d0033",
    "linkReferences": {}
  }
}